:102B91005600452D0000000000000C0C00003030F4
:102BA10000000C0C00445860C0605844000202024E
:102BB1003F02020200808888F884848000000000BF
:102BC1003F00000000405860FC60584000080601CA
:102BD1003F010608000080808080808000000000A6
:102BE1000000000000F8040404844424F81F242297
:102BF100212020201FFC020282422212FC1F2422DB
:102C0100232020201FFC020202020202FC1F2020BE
:102C1100202020201F000040404040000021110FD3
:102C2100013F212119000040404040000021110FC7
:102C3100013F212119000040404040000021110FB7
:102C4100013F212119FCFCFCFCFCFCFCFC3F3F3F4B
:102C51003F3F3F3F3F000000F8A8A8A8A8A8A8F858
:102C6100000028242B2A2A3F2A2A2A2A2010FC5035
:102C710050FC1000F84848F80024170505172420D7
:102C81001F02223F0040209C909090F09090901065
:102C9100000404070404043F04040404000000F8D1
:102CA100484848484848F800002018070202020234
:102CB10022223F000000000000FC40404040400054
:102CC10000202020203F2020202020200010905094
:102CD100301CD010101010100008090909093F0913
:102CE100090909080000F0545850F0505854F000F8
:102CF1000004050505053F0505050504004848F8DC
:102D01004400BCA4A4A4BC000004033F0122242469
:102D11003F242420002090C824002024E8202020E3
:102D21000001003F002022223F222220004044C80F
:102D310000F828A8282424E40020100F18272028B0
:102D410025222528002020FC2020080808F8080852
:102D51000002223F01010020203F000000F8484806
:102D6100444400F8080808F8000F08040402003F72
:102D71000008080F00408408A09C8484849CA02043
:102D81000010082420131408141221200080E018D8
:102D9100A0A0F8A0F8A0E00000003F0023120F025D
:102DA1003F12120E0000C0000000F8000000C00039
:102DB10000001F1010101F1010103F00000000FF36
:102DC10020304884020100000000000F00000000D4
:102DD1000102040800FE02FAFAFAFAFAFAFA02FE0D
:102DE10000070405050505050505040700FE0202A7
:102DF10002020202020202FE0007040404040404A7
:102E010004040407008040F008D05050F85050D01E
:102E11000000003F2023160A172222230000F84851
:102E21004848F8484848F80000300F0202023F02C3
:102E310022223F00008080BCA4A4A4A4A4BC808062
:102E4100000000060504040424241C000008C8B87E
:102E51008804F4848484FC8000011F081F04040496
:102E61000424201F0040F00CE040502C28A85840BA
:102E710000003F000F202A2A2514120800888888A4
:102E8100F88040BC2020E020003F10080420100BF7
:102E9100040A1120000008486858C8C444240400EA
:102EA1000020120A03233E02020A1326006050CCBE
:102EB10020009050341850900012130A0A20110F6C
:102EC100011F213300F88888F80020202020FC20F1
:102ED100001F08081F00000126203F0000205CD0D1
:102EE100505000E020FC20E00002023F120A0007DF
:102EF100023F0207006050CC2000F8484848F80023
:102F01000012130A0A203F2222223F200040F00C27
:102F110020A020242820A02000003F0020212E20D6
:102F2100302C232000F0909090FC909090F00000C5
:102F3100000F0404041F2424242720380040C4085F
:102F410040484848F844444400001F08043E121217
:102F51001312123E0044C80008880808F80808083F
:102F610000001F08243F20203F2121210030109024
:102F710090949890909010300004040424243C060E
:102F8100050404040040F00C2020A0FCA020200037
:102F910000003F040209083F080902040020A0FCC8
:102FA1002000FC242424FC000002013F01003F1109
:102FB100070915220060DC500050507C507C5050B5
:102FC10000011F0905001F1515151F000000000055
:102FD10000000000000000000000000000000000F0
:102FE1000000000000004044C88040BC8484BCA0B4
:102FF100200000000F1410110A040A1110FC0464CF
:103001009C20F00CA020FC20001F020203001F00E6
:1030110010111F00001010FC1010F000F01010F043
:1030210000100C0310100F001F08081F0028A8F83B
:103031002420F4181018F4000006011F11100907CC
:10304100011F111C000080881000808080F88080A2
:103051008000003F10080000003F0000008040F0A9
:103061008840A01810A040800000003F20100F00F1
:10307100003F0000000078484878807848C8780010
:1030810000053D25273D013D25273D0500404040E8
:103091004040F840404060400020201008060106F2
:1030A10008102020008080804020182040808080EF
:1030B1000020100F042810080708102000808888BD
:1030C1008888F88888888880002010080403001FF9
:1030D1002020203800F01010F020A02020F820201F
:1030E100001F09091F000023203F000000E0081015
:1030F100C0484848C808F800003F00000F09090906
:103101000F203F0000C0B8A0A000F8484848F800D0
:1031110000023F120A003F110709152200905030AA
:10312100405050F85050F040002519172425253FF4
:103131002525252400101010305098503010101003
:10314100002222120D0100013D02020200C0505076
:1031510070D07048685848C000202111292F1515DA
:103161002D252120004060D870D05000F09090F0C3
:10317100000201003E2A2B2A2A3E00000020B0A8AE
:10318100A0B000F8A0A090E000003F0A2A3F003E56
:103191002424223800000000F00000F800000000A4
:1031A1000020100C03000000030C10200088B00068
:1031B10008E8B8E8B8A8E80000300F10202F222F47
:1031C100222A2F2000404040F80000F88080404033
:1031D100001010083F00003F2020203C008088881C
:1031E1008888F88888888880002020100C03003F98
:1031F1002020203800004040404040F840404060DE
:1032010040002020100806010608102020000000C0
:10321100C000F800408000000004020120203F00AF
:10322100000001060088C8A898A8C888E00000F836
:10323100002424241F1414100F20203F000000003C
:10324100F8000000F800000000201806211608060A
:10325100010618200088B000C0B0A0F8A0A0A0808E
:1032610000300F10302827202F28282C002020F88C
:1032710020A8986848A898800022223F010A0A0ADB
:103281003F0A0A080088B00010901010F0101810C2
:1032910000003F10203F20203F2121210000C038A5
:1032A10010D050785050D01000013F00203F2A2A02
:1032B1002A2A3F2000101090D070585050D0101082
:1032C100000201003F0A0A0A2A3F00000000000034
:1032D1000C1424448404040C00000000302824222F
:1032E1002120203000000000000C30C000C0300C54
:0D32F10000000000000000003F0000000091
:0D7AD200C101C100C106C104C1028129002B
:030003000277B5CC
:1077B500C0E0C0D075D000C000C007D2017846E255
:1077C500701D18E270197803E2FF7844E2B5070FDF
:1077D500B20278033002057406F280037422F2D0F7
:0877E50007D000D0D0D0E03243
:1079AE007844E2FF64226006EFC394065008D202C8
:0D79BE0078037406F222C20278037422F2EC
:0179CB002299
:047B260053880F224F
:107A76007594FFE4F5934396F053950F439606539A
:037A860095F9224D
:1078DD007592FFE4F591F59675951AF5B275B1802F
:1078ED0075900775A0F975B0FF7580FF758801D289
:0678FD00A8D2AF027A766A
:1072B8001276D01279AE7BFE7A00792C787374043A
:1072C800F2E4FFFE127259782CE27828F2782DE267
:1072D800783DF2782EE2783EF2782FE29002CDF0F7
:1072E800784A743CF278487401F2087418F2784BC2
:1072F8007401F2087418F2087401F20874A4F20810
:0C7308007401F20874A4F2E47847F22249
:0C7AE0007F3C7EFFAD061EED70FADFF665
:017AEC002277
:047A1D007F057E0063
:107A2100AB07AA06EB1BAE0270011A4E6005127A73
:047A3100E080F122DE
:1057A100E47875F27B027D087F0112690EE4787559
:1057B100F2FB7D107F0112690E7840E2C4540FFBA9
:1057C100E47875F27D187F0112690E7840E2540F7A
:1057D100FBE47875F27D207F0112690E7BFF7A2C44
:1057E1007986E47874F27D2A7F01126BA27841E216
:1057F100C4540FFBE47875F27D387F0112690E788D
:1058010041E2540FFBE47875F27D407F0112690E8D
:105811007BFF7A2C799EE47874F27D4A7F01126BCA
:10582100A27842E2C4540FFBE47875F27D587F01FF
:1058310012690E7842E2540FFBE47875F27D607FC5
:105841000112690EE47872F2FB7D6A7F011268250C
:105851007BFF7A2D798EE47874F2FD7F02126BA2C0
:105861007BFF7A2D79A6E47874F27D0C7F02126BAE
:10587100A27BFF7A2B799178737401F2E408F27DAF
:10588100187F02125917E47875F27B017D207F029F
:1058910012690E7844E2C4540FFBE47875F27D3846
:1058A1007F0212690E7844E2540FFBE47875F27DB1
:1058B100407F0212690E7BFF7A2B799E7D487F0221
:1058C100126E087845E2C4540FFBE47875F27D4C02
:1058D1007F0212690E7845E2540FFBE47875F27D80
:1058E100547F0212690E7BFF7A2B799E7D5C7F02C9
:1058F100126E087846E2C4540FFBE47875F27D60BD
:105901007F0212690E7846E2540FFBE47875F27D4E
:06591100687F0202690E2E
:10543900E47875F27B027D087F0112690EE47875C4
:10544900F2FB7D107F0112690E7840E2C4540FFB14
:10545900E47875F27D187F0112690E7840E2540FE5
:10546900FBE47875F27D207F0112690E7BFF7A2CAF
:105479007986E47874F27D2A7F01126BA27841E281
:10548900C4540FFBE47875F27D387F0112690E78F8
:1054990041E2540FFBE47875F27D407F0112690EF9
:1054A9007BFF7A2C799EE47874F27D4A7F01126B36
:1054B900A27842E2C4540FFBE47875F27D587F016B
:1054C90012690E7842E2540FFBE47875F27D607F31
:1054D9000112690EE47872F2FB7D6A7F0112682578
:1054E9007844E2C4540FFBE47875F27D2D7F0212F3
:1054F900690E7844E2540FFBE47875F27D357F023A
:1055090012690E7845E2C4540FFBE47875F27D41C7
:105519007F0212690E7845E2540FFBE47875F27D3B
:10552900497F0212690E7BFF7A2B799E7D3D7F02AE
:10553900126E087806E214B40A0040030256199064
:10554900555675F003A4C58325F0C58373025574B8
:105559000255840255930255A30255B20255C2025F
:1055690055D20255E40255F50256077840E2C45473
:105579000FFB78757401F27D18804B7840E2540F67
:10558900FB78757401F27D20803C7841E2C4540FA8
:10559900FB78757401F27D38802C7841E2540FFB59
:1055A90078757401F27D40801D7842E2C4540FFB86
:1055B90078757401F27D58800D7842E2540FFB78BA
:1055C900757401F27D60FF80447844E2C4540FFB96
:1055D90078757401F27D2D7F0280327844E2540F90
:1055E900FB78757401F27D357F0280217845E2C42C
:1055F900540FFB78757401F27D417F02800F784565
:10560900E2540FFB78757401F27D497F0212690E2D
:01561900226E
:10458600127B2AE47875F27B02FD7F0112690EE444
:104596007875F2FB7D087F0112690E9002EFE0FB51
:1045A600E47875F27D107F0112690E9002F0E0FB4F
:1045B600E47875F27D187F0112690E7BFF7A2B79FC
:1045C600D67D207F01126EC09002F1E0FBE4787583
:1045D600F27D287F0112690E9002F2E0FBE4787505
:1045E600F27D307F0112690E7BFF7A2B79D67D38FA
:1045F6007F01126EC09002F3E0FBE47875F27D4015
:104606007F0112690E9002F4E0FBE47875F27D48B2
:104616007F0112690E9002F5E0FBE47875F27D5693
:104626007F0112690E9002F6E0FBE47875F27D5E7A
:104636007F0112690E7BFF7A2B799E7D667F0112C0
:104646006E089002F7E0FBE47875F27D6A7F01124E
:10465600690E9002F8E0FBE47875F27D727F011234
:10466600690EE47875F27B02FD7F0212690EE4782A
:1046760075F2FB7D087F0212690E9002FBE0FBE4F7
:104686007875F27D107F0212690E9002FCE0FBE461
:104696007875F27D187F0212690E7BFF7A2B79D628
:1046A6007D207F02126EC09002FDE0FBE47875F279
:1046B6007D287F0212690E9002FEE0FBE47875F217
:1046C6007D307F0212690E7BFF7A2B79D67D387F8B
:1046D60002126EC09002FFE0FBE47875F27D407F27
:1046E6000212690E900300E0FBE47875F27D487FC4
:1046F6000212690E900301E0FBE47875F27D567FA5
:104706000212690E900302E0FBE47875F27D5E7F8B
:104716000212690E7BFF7A2B799E7D667F02126EEE
:1047260008900303E0FBE47875F27D6A7F02126964
:104736000E900304E0FBE47875F27D727F02126945
:104746000E7806E224FEB4140040030248CE9047D9
:104756006275F003A4C58325F0C5837302479E02E4
:1047660047AC0247BA0247C80247D60247E40247A7
:10477600F202480002480E02481C02482C02483D3C
:1047860002484D02485D02486D02487D02488D028E
:10479600489D0248AD0248BD9002EFE0FB78757473
:1047A60001F27D10807C9002F0E0FB78757401F2D6
:1047B6007D18806E9002F1E0FB78757401F27D2819
:1047C60080609002F2E0FB78757401F27D308052D1
:1047D6009002F3E0FB78757401F27D40804490020C
:1047E600F4E0FB78757401F27D4880369002F5E0BE
:1047F600FB78757401F27D5680289002F6E0FB780E
:10480600757401F27D5E801A9002F7E0FB7875748C
:1048160001F27D6A800C9002F8E0FB78757401F273
:104826007D72FF0248CB9002FBE0FB78757401F2C3
:104836007D107F020248CB9002FCE0FB7875740184
:10484600F27D187F02807E9002FDE0FB7875740190
:10485600F27D287F02806E9002FEE0FB787574017F
:10486600F27D307F02805E9002FFE0FB7875740176
:10487600F27D407F02804E900300E0FB7875740164
:10488600F27D487F02803E900301E0FB787574015B
:10489600F27D567F02802E900302E0FB787574014C
:1048A600F27D5E7F02801E900303E0FB7875740143
:1048B600F27D6A7F02800E900304E0FB7875740136
:0948C600F27D727F0212690E22DC
:104BF700127B2A7BFF7A3279CEE47874F2FD7F014B
:104C0700126BA27BFF7A2B799E7D0C7F01126E08B7
:104C17009002E5E0FBE47875F27D107F0112690EE2
:104C27009002E6E0FBE47875F27D187F0112690EC9
:104C37009002E7E0FBE47875F27D207F0112690EB0
:104C47009002E8E0FBE47875F27D287F0112690E97
:104C57009002DDE0FBE47875F27D3C7F0112690E7E
:104C67009002DEE0FBE47875F27D447F0112690E65
:104C77009002DFE0FBE47875F27D4C7F0112690E4C
:104C87009002E0E0FBE47875F27D547F0112690E33
:104C97007BFF7A2B79967D5C7F01126E089002E18B
:104CA700E0FBE47875F27D607F0112690E7BFF7A85
:104CB7002B79B67D687F01126EC07BFF7A2B79C690
:104CC7007D707F01126EC07BFF7A3279E6E47874DB
:104CD700F2FD7F02126BA27BFF7A2B799E7D0C7F00
:104CE70002126E089002DAE0FBE47875F27D107F1D
:104CF7000212690E9002DBE0FBE47875F27D187F03
:104D07000212690E7BFF7A2D7946E47874F27D3EB4
:104D17007F02126BA27BFF7A2D795EE47874F27DB5
:104D27004A7F02126BA27806E214B40C0040030219
:104D37004E2C904D4775F003A4C58325F0C58373AA
:104D4700024D6B024D79024D87024D95024DA3022C
:104D57004DB1024DBF024DCD024DDB024DEA024D72
:104D6700FA024E0B9002E5E0FB78757401F27D10B4
:104D7700806E9002E6E0FB78757401F27D18806022
:104D87009002E7E0FB78757401F27D208052900273
:104D9700E8E0FB78757401F27D2880449002DDE03D
:104DA700FB78757401F27D3C80369002DEE0FB787B
:104DB700757401F27D4480289002DFE0FB787574FA
:104DC70001F27D4C801A9002E0E0FB78757401F2E5
:104DD7007D54800C9002E1E0FB78757401F27D60F0
:104DE700FF801E9002DAE0FB78757401F27D107F78
:104DF70002800E9002DBE0FB78757401F27D187F6C
:104E07000202690E7BFF7A2D794678747401F27D70
:104E17003E7F02126BA27BFF7A2D795E7874740154
:104E2700F27D4A800D7BFF7A2D794678747401F202
:084E37007D647F02126BA222D0
:103F8A00E4780DF208F2C20478777403F208742018
:103F9A00F2E408F208F27848E2FE08E2FF784DE21D
:103FAA00FD08E27875CDF208EDF2C2079002B6E09C
:103FBA00FDB40207A3E0D39402500CED70279002DF
:103FCA00B7E0C39405501E784BE2FE08E2FF784F33
:103FDA00E2FD08E27875CDF208EDF2087403F20802
:103FEA007420F280179002B6E06402600FA3E0FD2D
:103FFA00C394074007ED94095002D2077807EEF2FE
:10400A0008EFF2240AFFE43EFE7C007D14125F3CB6
:10401A007C007D0A125F2A787BEEF208EFF29002AA
:10402A00CEE0FF9002CDE02FFFEC33FE7D64125FFD
:10403A002A7878E22FF218E23EF29002A8E075F0B0
:10404A000AA4FFAEF0A3E02F787EF2EC3E18F2A3AA
:10405A00E0FF7E007D0A125F2AA3E02FFFEC3EFEFE
:10406A007D3C125F2AAC06AD07A3E075F00AA42DC9
:10407A00FFEC35F0FEA3E02FFFE43EFE7C007DB4AA
:10408A00125F3CAB07AA06787DE2FE08E2FF7C00DD
:10409A007D14125F2AEF2BFBEE3AFA30024BE478DA
:1040AA0073F208F2C37874E29B18E29A4003024161
:1040BA006A7878E22464F218E23400F2D308E294CF
:1040CA000F18E29427401508E224F0F218E234D8D7
:1040DA00F2787AE22401F218E23400F27874E224E7
:1040EA0001F218E23400F280BBE47873F208F2C3FA
:1040FA007874E29B18E29A50387878E22464F218CD
:10410A00E23400F2D308E2940F18E294274015082B
:10411A00E224F0F218E234D8F2787AE22401F218B2
:10412A00E23400F27874E22401F218E23400F280F8
:10413A00BEEB30E02B7878E22464F218E23400F225
:10414A00D308E2940F18E29427401508E224F0F20B
:10415A0018E234D8F2787AE22401F218E23400F252
:10416A009002BFE075F00AA4FFAEF0A3E07C002F36
:10417A00780CF2EC3E18F2A3E075F00AA4FFA3E073
:10418A002FFFEC35F0FE7D64125F2A7804EEF20808
:10419A00EFF2C2087878E22437FF18E23400FE1200
:1041AA005F3C7C007D64125F2AD3EF940FEE942764
:1041BA004036787AE22401FF18E23400FE780BE2F6
:1041CA00FC08E2FDC39FEC9E5003D20422ED6F70FF
:1041DA0002EC6E60030242811274AF7C007D0A1207
:1041EA005F91ED24140242787879E2FE08E2FF78C2
:1041FA000BE2FC08E2FDC39FEC9E402BEDB5072BBA
:10420A00ECB506277878E22437FF18E23400FE7C02
:10421A00007D64125F3C7C007D64125F2AC37805CE
:10422A00E29F18E29E5004D204D3227879E2FE0873
:10423A00E2FF780CE26F700318E26E703A7878E267
:10424A002437FF18E23400FE7C007D64125F3C7C58
:10425A00007D64125F2A7805E2B5071B18E2B506ED
:10426A00161274AF7C007D0A125F91ED240A780E53
:10427A00F2E43C18F2D208300802C322780DE4F2C4
:10428A00087414F2D209780EE26450700218E270CF
:10429A002F7847E2702A7875E2FE08E2FF7807EE87
:1042AA00F2FE08EFF2240AFFE43EFE7C007D1412BF
:1042BA005F3C7C007D0A125F2A787BEEF208EFF2FF
:1042CA00787BE2FE08E2FF300902800AC37808E23E
:1042DA009FFF18E29EFE7878E22FF218E23EF2B2D1
:1042EA0009D37878E2940F18E29427401508E2245B
:1042FA00F0F218E234D8F2787AE22401F218E234C1
:10430A0000F27878E22437FF18E23400FE7C007D60
:10431A0064125F3C7C007D64125F2AD3EF940FEE37
:10432A0094274044787AE22401FF18E23400FE78A8
:10433A000BE2FA08E2FBB50715EAB506117804E2C2
:10434A00FE08E2FF125F3CEF4E70030243FB787AED
:10435A00E22401FF18E23400FEC3EB9FEA9E400309
:10436A000243EDD2040243FB7879E2FE08E2FF78C9
:10437A000BE2FA08E2FBB5072AEAB506267878E2E4
:10438A002437FF18E23400FE7C007D64125F3C7C17
:10439A00007D64125F2A7805E2B5070718E2B506C0
:1043AA0002804E7879E2FE08E2FFC3EB9FEA9E4064
:1043BA002E780CE2B5072C18E2B506277878E224A5
:1043CA0037FF18E23400FE7C007D64125F3C7C00FB
:1043DA007D64125F2AC37805E29F18E29E5004D2D8
:1043EA0004800E780EE22405F218E23400F202424A
:1043FA00901274AF7C007D05125F91780EE22DF267
:10440A0018E23CF27879E2FF08E2780BCFF208EF83
:10441A00F27878E22405FF18E23400FE7C007D0A77
:10442A00125F3C7C007D0A125F2A7804EEF208EFE4
:10443A00F2D3940FEE94274014E224F0F218E234F7
:10444A00D8F2780CE22401F218E23400F2780BE296
:10445A00FE08E2FF7C007D64125F3C780BECF208F8
:10446A00EDF2787FECF208EDF27804E2FF08E278E8
:10447A0081CFF208EFF29002CEE0FF9002CDE02F5A
:10448A00FBE433FA7804E2FE08E2FF7C007D641262
:10449A005F3CC3EF9BEE9A5037780CE224FF798099
:1044AA00F318E234FF19F3A3E0FF9002CDE02FFFE7
:1044BA00E433FE7C007D64125F2A7805E22410FD55
:1044CA0018E23427CDC39F7882F2ED9E18F2802F2E
:1044DA00780BE2FF08E2787FCFF208EFF29002CE83
:1044EA00E0FF9002CDE02FFFE433FE7C007D6412F2
:1044FA005F2AC37805E29F7982F318E29E19F3785E
:10450A007FE2FA08E2FB7C007D0AFFAE02125F3C02
:10451A009002C5EFF07C007D0AAF03AE02125F3C49
:10452A00A3EDF07881E2FE08E2FF7C007D0A125FCB
:10453A003C7881EEF208EFF218E2FE08E2FF7C0016
:10454A007D64125F3CA3EFF07C007D64125F2A78E1
:10455A0081E2FA08E2FBC39FFFEA9EFE7D0A125F30
:10456A003CA3EFF07C007D0AAF03AE02125F3CA3CE
:0B457A00EDF07847E224FF9206A20457
:014585002213
:1069EC009002BFE0FF7E007C0E7D10125F2A786F54
:1069FC00EEF208EFF2A3E0FF7E007C027D58125FFE
:106A0C002A7870E22FF218E23EF2E418F21274AF18
:106A1C007C007DFA125F917870E22DFF18E23CAB9E
:106A2C0007FA18E275F0FAA42BFBE5F03AFA7C0EA3
:106A3C007D10AF03FE125F3C7871EFF27C0E7D107F
:106A4C00AF03AE02125F3C7E007F3CCFCDCFCECCED
:106A5C00CE125F3C7872EFF2AE02AF037C0E7D106B
:106A6C00125F3C7E007F3CCFCDCFCECCCE125F3CB4
:106A7C00AF057871E2FE75F00A849002A8F0EE750D
:106A8C00F00A84A3E5F0F008E2FE75F00A84A3F0A6
:106A9C00EE75F00A84A3E5F0F0EF75F00A84A3F02C
:106AAC00EF75F00A84A3E5F0F0123F8A500E786E71
:0C6ABC00E204F2E2C3940A5003026A19DB
:016AC80022AB
:10396100C204E4780BF208F278047403F2087420BC
:10397100F27848E2FE08E2FF784DE2FD08E2787055
:10398100CDF208EDF2C2089002B6E0FDB40207A341
:10399100E0D39402500CED70289002B7E0C3940577
:1039A100501F784BE2FE08E2FF784FE2FD08E27813
:1039B10070CDF208EDF278047403F2087420F280FD
:1039C100179002B6E06402600FA3E0FDC3940740C4
:1039D10007ED94095002D2087807EEF208EFF224BD
:1039E1000AFFE43EFE7C007D14125F3C7C007D0AF0
:1039F100125F2A7872EEF208EFF29002CEE0FF90A9
:103A010002CDE02FFFEC33FE7D64125F2A7805E2E0
:103A11002FF218E23EF2D308E2940F18E294274005
:103A21001508E224F0F218E234D8F2780CE224010D
:103A3100F218E23400F2300703023B11780DE2FA8A
:103A410008E2FB7C277D10FFAE02125F3C9002A8CA
:103A5100EFF07C277D10AF03AE02125F3C8D828CAC
:103A6100837C007D64AF82AE83125F3C7C007D3C31
:103A7100125F2AAB07AA067D64AF82AE83125F3C58
:103A81008C838D82E5822BFBE5833AFA7C0E7D10D7
:103A9100AF03FE125F3C9002A9EFF07C0E7D10AFE8
:103AA10003AE02125F3CAA04AB057C027D58AF0352
:103AB100AE02125F3CA3EFF07C027D58AF03AE0271
:103AC100125F3CAA04AB057C007D3CAF03AE021241
:103AD1005F3CA3EFF07C007D3CAF03AE02125F3C84
:103AE100AA04AB057C007D0AAF03AE02125F3CA3C2
:103AF100EFF07C007D0AAF03AE02125F3CAA04AB7B
:103B0100051274AF7C007D0A125F919002ADEDF059
:103B11009002A8E075F00AA4FFAEF0A3E07C002FAC
:103B21007877F2EC3E18F2A3E0FF7E007D0A125F87
:103B31002AA3E02FFFEC3EFE7D3C125F2AAC06ADCE
:103B410007A3E075F00AA42DFFEC35F0FEA3E02FEA
:103B5100FFE43EFE7C007DB4125F3CAB07AA067811
:103B610076E2FE08E2FF7C007D14125F2AEF2BFB58
:103B7100EE3AFA30024BE4786EF208F2C3786FE263
:103B81009B18E29A4003023C397805E22464F2185A
:103B9100E23400F2D308E2940F18E29427401508AA
:103BA100E224F0F218E234D8F2780CE22401F2189F
:103BB100E23400F2786FE22401F218E23400F2807C
:103BC100BBE4786EF208F2C3786FE29B18E29A5078
:103BD100387805E22464F218E23400F2D308E29462
:103BE1000F18E29427401508E224F0F218E234D8C5
:103BF100F2780CE22401F218E23400F2786FE22448
:103C010001F218E23400F280BEEB30E02B7805E2DD
:103C11002464F218E23400F2D308E2940F18E2941B
:103C210027401508E224F0F218E234D8F2780CE2C9
:103C31002401F218E23400F2780DE2FE08E2FF7C82
:103C4100007D05125F3CEF2401FFE43EFE7874F233
:103C510008EFF2D39414EE94005003023D4F78071D
:103C6100E2FE08E2FF7C007D06125F2A7805E22F62
:103C7100F218E23EF2D308E2940F18E294274015BD
:103C810008E224F0F218E234D8F2780CE22401F2CE
:103C910018E23400F27875E224F0F218E234FFF20F
:103CA1007847E2702A7870E2FE08E2FF7807EEF2C8
:103CB100FE08EFF2240AFFE43EFE7C007D14125F51
:103CC1003C7C007D0A125F2A7872EEF208EFF2E482
:103CD100786EF208F27874E2FC08E2FDECC313FEA0
:103CE100ED13FFC3786FE29F18E29E503D7807E223
:103CF100FE08E2FF7805E22FF218E23EF2D308E275
:103D0100940F18E29427401508E224F0F218E234E7
:103D1100D8F2780CE22401F218E23400F2786FE272
:103D21002401F218E23400F280ABED20E003023D01
:103D3100BC7872E2FE08E2FF7805E22FF218E23E5B
:103D4100F2D308E2940F18E29427406F8058D37899
:103D510075E2940418E29400406108E224FCF21830
:103D6100E234FFF2E2C313FE08E213FF7807E2FC3C
:103D710008E2FD125F2AAA06AB077E007875E254BD
:103D810001FF7872E2FC08E2FD125F2AEB2FFFEAE5
:103D91003EFE7805E22FF218E23EF2D308E2940FDC
:103DA10018E29427401508E224F0F218E234D8F220
:103DB100780CE22401F218E23400F27804E2FA0805
:103DC100E2FB7C007D0AFFAE02125F3CD3ED94045E
:103DD100EC94004033EB9D7805F2EA9C18F208E27E
:103DE100240AF218E23400F2D308E2940F18E294A4
:103DF10027401508E224F0F218E234D8F2780CE2F8
:103E01002401F218E23400F2780BE2FE08E2FFD35B
:103E11009464EE94004002D2047C007D64125F3C05
:103E2100780BECF208EDF218E2FA08E2FB7C007D77
:103E31000AFFAE02125F3C9002BFEFF07C007D0AE8
:103E4100AF03AE02125F3CA3EDF07804E2FE08E29C
:103E5100FF7C007D0A125F3C7804EEF208EFF21855
:103E6100E2FE08E2FF7C007D64125F3CA3EFF07C80
:103E7100007D64125F2A7804E2FA08E2FBC39FFF27
:103E8100EA9EFE7D0A125F3CA3EFF07C007D0AAF43
:103E910003AE02125F3CA3EDF09002CEE0FF900270
:103EA100CDE02FFBE433FA7804E2FE08E2FF7C0068
:103EB1007D0A125F3CC3EF9BEE9A5037780CE224E7
:103EC100FF7979F318E234FF19F3A3E0FF9002CDF3
:103ED100E02FFFE433FE7C007D0A125F2A7805E2C1
:103EE10024E8FD18E23403CDC39F787BF2ED9E18E0
:103EF100F2802F780BE2FF08E27878CFF208EFF238
:103F01009002CEE0FF9002CDE02FFFE433FE7C0073
:103F11007D0A125F2AC37805E29F797BF318E29E3E
:103F210019F37878E2FA08E2FB7C007D0AFFAE0221
:103F3100125F3C9002C5EFF07C007D0AAF03AE0238
:103F4100125F3CA3EDF0787AE2FE08E2FF7C007D8F
:103F510064125F3CA3EFF07C007D64125F2A787AE3
:103F6100E2FA08E2FBC39FFFEA9EFE7D0A125F3C74
:103F7100A3EFF07C007D0AAF03AE02125F3CA3ED1C
:083F8100F07847E224FF9206EC
:013F89002215
:10769500786EEDF2EF24FE600B04702E7BFF7A32DC
:1076A50079B680067BFF7A3079BE786EE27874F21F
:1076B5007D167F02126BA27BFF7A2C7986786EE2AB
:0B76C5007874F27D227F02126BA2227B
:10770A007800EFF29002CFE064317BFF70067A32A4
:10771A0079B680067A3079BE7800E27874F27D56BE
:10772A007F01126BA27BFF7A2C79867800E278744B
:09773A00F27D627F01126BA222B4
:10785500127B2AE4786EF2786EE2FFC3940D502114
:10786500EF75F009A42402FD7BFF7A2C79467F0190
:10787500126EC07F027E00127A21786EE204F280D9
:01788500D62C
:0178860022DF
:104E3F00786EEFF2E47875F27B027D087F011269DC
:104E4F000EE47875F2FB7D107F0112690E9002B0AF
:104E5F00E0FBE47875F27D187F0112690E9002B1C4
:104E6F00E0FBE47875F27D207F0112690E7BFF7AFB
:104E7F002C7986E47874F27D2A7F01126BA290025E
:104E8F00B2E0FBE47875F27D387F0112690E900273
:104E9F00B3E0FBE47875F27D407F0112690E7BFF72
:104EAF007A2C799EE47874F27D4A7F01126BA2907E
:104EBF0002B4E0FBE47875F27D587F0112690E9021
:104ECF0002B5E0FBE47875F27D607F0112690EE4B4
:104EDF007872F2FB7D6A7F011268257BFF7A2C794D
:104EEF00B6E47874F2FD7F02126BA27BFF7A2C7905
:104EFF00CEE47874F27D0C7F02126BA27BFF7A30C6
:104F0F0079D6E47874F27D187F02126BA27BFF7A58
:104F1F003079EEE47874F27D247F02126BA2900256
:104F2F00B6E0FBE47875F27D387F0212690E9002CD
:104F3F00B7E0FBE47875F27D407F0212690E7BFFCC
:104F4F007A2B799E7D487F02126E089002B8E0FBA3
:104F5F00E47875F27D4C7F0212690E9002B9E0FB86
:104F6F00E47875F27D547F0212690E786EE2B40A0E
:104F7F00004003025040904F8CF8282873024FAA2C
:104F8F00024FB8024FC6024FD4024FE2024FF00257
:104F9F004FFF02500F02501F02502F9002B0E0FB44
:104FAF0078757401F27D1880449002B1E0FB78753A
:104FBF007401F27D2080369002B2E0FB78757401A7
:104FCF00F27D3880289002B3E0FB78757401F27D92
:104FDF0040801A9002B4E0FB78757401F27D58801E
:104FEF000C9002B5E0FB78757401F27D60FF803E96
:104FFF009002B6E0FB78757401F27D387F02802E47
:10500F009002B7E0FB78757401F27D407F02801E3D
:10501F009002B8E0FB78757401F27D4C7F02800E30
:10502F009002B9E0FB78757401F27D547F0212692A
:02503F000E223F
:106005009002B6E0FBE47875F27D167F0112690E09
:106015009002B7E0FBE47875F27D1E7F0112690EF0
:106025007BFF7A2B799E7D267F01126E089002B840
:10603500E0FBE47875F27D2A7F0112690E9002B9C2
:10604500E0FBE47875F27D327F0112690E7BFF7A01
:106055002B79D67D3A7F01126EC09002BAE0FBE43F
:106065007875F27D427F0112690E9002BBE0FBE478
:106075007875F27D4A7F0112690E7BFF7A2B799E36
:106085007D527F01126E089002BCE0FBE47875F248
:106095007D567F0112690E9002BDE0FBE47875F232
:1060A5007D5E7F0112690E9002D0E0FFE4FD12765D
:1060B500957BFF7A2D7946E47874F27D467F02124E
:1060C5006BA27BFF7A2D795EE47874F27D527F02B4
:1060D500126BA27806E224FE6034146065146054E5
:1060E500146043146032240570687BFF7A2D79466D
:1060F50078747401F27D467F02126BA27BFF7A2DC4
:10610500795E78747401F27D527F02026BA290026F
:10611500D0E0FF7D010276959002BDE0FB787574B5
:1061250001F27D5E80289002BCE0FB78757401F277
:106135007D56801A9002BBE0FB78757401F27D4AAA
:10614500800C9002BAE0FB78757401F27D42FF1273
:03615500690E22AE
:10653500780DE2FE08E2FBAA067C007D0AFF125FE9
:106545003C7831EDF27C007D0AAF03AE02125F3C70
:10655500AA06AB077C007D0A125F3C782FEDF27C22
:10656500007D0AAF03AE02125F3CAA06AB077C00B2
:106575007D0A125F3C782EEDF27C007D0AAF03AEFA
:1065850002125F3CAA06AB077C007D0A125F3C78CD
:106595002DEDF27C007D0AAF03AE02125F3CAA0628
:1065A500782CEFF27831E2FBE47875F27D607F01BB
:1065B50012690E7BFF7A2B79967D5C7F01126E083E
:1065C500782FE2FBE47875F27D547F0112690E782D
:1065D5002EE2FBE47875F27D4C7F0112690E782D71
:1065E500E2FBE47875F27D447F0112690E782CE2B6
:1065F500FBE47875F27D3C7F0112690E7BFF7A2BF7
:1066050079B67D687F01126EC07BFF7A2B79C67DD6
:10661500707F01126EC0782CE29002A2F008E2A30E
:0E662500F008E2A3F008E2A3F07831E2A3F05F
:016633002244
:107417007BFF7A2B79A6E4FD7F01126EC09002BF35
:10742700E0FBE47875F27D087F0112690E9002C0D7
:10743700E0FBE47875F27D107F0112690E9002C1BE
:10744700E0FBE47875F27D187F0112690E9002C2A5
:0D745700E0FBE47875F27D207F0102690EF4
:107093009002ADE0FBE47875F27D707F0212690E19
:1070A3009002ACE0FBE47875F27D687F0212690E12
:1070B3007BFF7A2B799E7D647F02126E089002AB70
:1070C300E0FBE47875F27D5C7F0212690E9002AA00
:1070D300E0FBE47875F27D547F0212690E7BFF7A40
:1070E3002B799E7D507F02126E089002A9E0FBE48B
:1070F3007875F27D487F0212690E9002A8E0FBE4E6
:0A7103007875F27D407F0202690EEC
:067464007847E2FFE4FDA1
:10746A00786EEDF2EF7BFF70177A2C79E6E278748A
:10747A00F27D187F02126BA27BFF7A2C79FE8017AD
:10748A007A2D7916786EE27874F27D187F02126B83
:10749A00A27BFF7A2D792E786EE27874F27D247FB2
:0574AA0002126BA2229A
:107903007801EFF27BFF7A2F7926E47874F2FD7F1A
:1079130002126BA29002CEE0FB7801E27875F27D51
:067923000C7F0202690E58
:105BF0001265351274171270931274647807E2FA02
:105C000008E2FB7C007D64FFAE02125F3C9002CA9A
:105C1000EFF07C007D64AF03AE02125F3C7E007F3C
:105C20000ACFCDCFCECCCE125F3CA3EFF07807E207
:105C3000FE08E2FF7C007D0A125F3CA3EDF09002BB
:105C4000AE3006057430F080037431F07806E2B4AB
:105C50000C004003025D35905C5EF8282873025CFE
:105C600082025C90025C9E025CAC025CBA025CC97F
:105C7000025CD4025CE4025CF4025D04025D140286
:105C80005D249002A2E0FB78757401F27D3C8036C1
:105C90009002A3E0FB78757401F27D4480289002A5
:105CA000A4E0FB78757401F27D4C801A9002A5E0A7
:105CB000FB78757401F27D54800C9002A6E0FB78AD
:105CC000757401F27D60FF80697847E2FF7D011203
:105CD000746A80619002A8E0FB78757401F27D40DF
:105CE0007F02804E9002A9E0FB78757401F27D4836
:105CF0007F02803E9002AAE0FB78757401F27D5429
:105D00007F02802E9002ABE0FB78757401F27D5C1F
:105D10007F02801E9002ACE0FB78757401F27D6812
:105D20007F02800E9002ADE0FB78757401F27D7009
:105D30007F0212690E7BFF3004067A2F79B6800449
:105D40007A2F79CEE47874F27D307F02126BA22232
:106158001265351274171270931274647807E2FA94
:1061680008E2FB7C007D64FFAE02125F3C9002CA2D
:10617800EFF07C007D64AF03AE02125F3C7E007FCF
:106188000ACFCDCFCECCCE125F3CA3EFF07807E29A
:10619800FE08E2FF7C007D0A125F3CA3EDF090024E
:1061A800AE3006057430F080037431F07806E2B43E
:1061B8000B00400302628C9061C6F82828730261C4
:1061C800E70261F502620302621102622002622B99
:1061D80002623B02624B02625B02626B02627B906C
:1061E80002BFE0FB78757401F27D0880289002C038
:1061F800E0FB78757401F27D10801A9002C1E0FB13
:1062080078757401F27D18800C9002C2E0FB7875F5
:106218007401F27D20FF80697847E2FF7D011274E6
:106228006A80619002A8E0FB78757401F27D407F76
:1062380002804E9002A9E0FB78757401F27D487FD8
:1062480002803E9002AAE0FB78757401F27D547FCB
:1062580002802E9002ABE0FB78757401F27D5C7FC2
:1062680002801E9002ACE0FB78757401F27D687FB5
:1062780002800E9002ADE0FB78757401F27D707FAC
:106288000212690E7BFF3004067A2F79B680047AF1
:0F6298002F79CEE47874F27D307F02126BA22250
:105D50007BFF7A2E7906E47874F27D227F01126B44
:105D6000A27BFF7A2E791EE47874F27D307F0112D7
:105D70006BA27BFF7A2E7936E47874F27D3D7F0149
:105D8000126BA27BFF7A2E794EE47874F27D4A7F03
:105D900001126BA2783DE275F06484FBE47875F241
:105DA0007D1C7F0212690E783DE275F06484E5F097
:105DB00075F00A84FBE47875F27D247F0212690E87
:105DC000783DE275F00A84ABF0E47875F27D2C7FC3
:105DD0000212690E7BFF7A2B79D67D357F02126E17
:105DE000C0783EE275F06484FBE47875F27D3E7F16
:105DF0000212690E783EE275F06484E5F075F00AEF
:105E000084FBE47875F27D467F0212690E783EE2EB
:105E100075F00A84ABF0E47875F27D4E7F0212696A
:105E20000E7806E214603914601F24FE606C146062
:105E30005214603E24037077783DE275F06484FB71
:105E400078757401F27D1C8061783DE275F06484A0
:105E5000E5F075F00A84FB78757401F27D24804AC0
:105E6000783DE275F00A84ABF078757401F27D2C10
:105E70008038783EE275F06484FB78757401F27DB9
:105E80003E8027783EE275F06484E5F075F00A8480
:105E9000FB78757401F27D468010783EE275F00A59
:105EA00084ABF078757401F27D4E7F0212690E2288
:10504100127B2A7806E214607014700302513A143C
:1050510070030251B9240360030252417BFF7A2D90
:1050610079D6E47874F27D017F01126BA27BFF7A1D
:105071002D79EEE47874F27D0E7F01126BA27BFF35
:105081007A2D79EEE47874F27D1B7F01126BA27B9D
:10509100FF7A2D79EEE47874F27D287F01126BA2FC
:1050A1007BFF7A2E7906E47874F27D227F02126BFF
:1050B100A27BFF7A2E791E805B7BFF7A2D79EEE44D
:1050C1007874F27D017F01126BA27BFF7A2D79D674
:1050D100E47874F27D0E7F01126BA27BFF7A2D7949
:1050E100EEE47874F27D1B7F01126BA27BFF7A2DB7
:1050F10079EEE47874F27D287F01126BA27BFF7A4E
:105101002E7966E47874F27D227F02126BA27BFF16
:105111007A2E797EE47874F27D307F02126BA27B65
:10512100FF7A2E7936E47874F27D3D7F02126BA20C
:105131007BFF7A2E794E0252367BFF7A2D79EEE48F
:105141007874F27D017F01126BA27BFF7A2D79EEDB
:10515100E47874F27D0E7F01126BA27BFF7A2D79C8
:10516100D6E47874F27D1B7F01126BA27BFF7A2D4E
:1051710079EEE47874F27D287F01126BA27BFF7ACD
:105181002E7996E47874F27D227F02126BA27BFF66
:105191007A2E79AEE47874F27D307F02126BA27BB5
:1051A100FF7A2E79C6E47874F27D3D7F02126BA2FC
:1051B1007BFF7A2E79DE807D7BFF7A2D79EEE47894
:1051C10074F27D017F01126BA27BFF7A2D79EEE4EF
:1051D1007874F27D0E7F01126BA27BFF7A2D79EE3E
:1051E100E47874F27D1B7F01126BA27BFF7A2D792B
:1051F100D6E47874F27D287F01126BA27BFF7A2FAF
:1052010079E6E47874F27D227F02126BA27BFF7A49
:105211002F79FEE47874F27D307F02126BA27BFF5E
:105221007A307916E47874F27D3D7F02126BA27BAD
:10523100FF7A30792EE47874F27D4A7F02126BA2F4
:01524100224A
:10731400127B2A7BFF7A2F79E6E47874F27D227F50
:1073240001126BA27BFF7A2F79FEE47874F27D3030
:107334007F01126BA27BFF7A307916E47874F27DB8
:107344003D7F01126BA27BFF7A30792EE47874F2D0
:107354007D4A7F01126BA29002CDE0FB7875740127
:08736400F27D3A7F0202690E7E
:05672F0078067401F280
:10673400127B2A7BFF7A2E7966E47874F27D227FBD
:1067440001126BA27BFF7A2E797EE47874F27D309D
:106754007F01126BA27BFF7A2E7936E47874F27D86
:106764003D7F01126BA27BFF7A2E794EE47874F29E
:106774007D4A7F01126BA27BFF7A2E79F6E478744E
:10678400F27D227F02126BA27BFF7A2B799E7D2EF3
:106794007F02126E087828E275F06484FBE4787551
:1067A400F27D3D7F0212690E7828E275F06484E57B
:1067B400F075F00A84FBE47875F27D457F02126976
:1067C4000E7828E275F00A84ABF0E47875F27D4D1A
:1067D4007F0212690E7806E224FE601914602D24EB
:1067E40002703D7828E275F00A84ABF07875740184
:1067F400F27D4D80267828E275F06484E5F075F02A
:106804000A84FB78757401F27D45800F7828E2755F
:10681400F06484FB78757401F27D3D7F0212690E89
:016824002251
:1062A700127B2A7BFF7A2C79E6E47874F2FD7F0172
:1062B700126BA27BFF7A2F790EE47874F27D0E7F42
:1062C70001126BA27BFF7A2B799E7D1B7F01126ED9
:1062D70008782CE2FBE47875F27D2D7F0212690EB7
:1062E700782DE2FBE47875F27D357F0212690E782E
:1062F7002EE2FBE47875F27D3D7F0212690E782F5E
:10630700E2FBE47875F27D457F0212690E7830E290
:10631700FBE47875F27D4D7F0212690E7831E2FB5E
:10632700E47875F27D557F0212690E7832E2FBE45C
:106337007875F27D5D7F0212690E7833E2FBE478AF
:1063470075F27D657F0212690E7806E214B40800C3
:1063570040030263ED90636A75F003A4C58325F0DB
:10636700C5837302638202638F02639C0263A9027F
:1063770063B60263C30263D00263DD782CE2FB7865
:10638700757401F27D2D8059782DE2FB78757401C3
:10639700F27D35804C782EE2FB78757401F27D3DF5
:1063A700803F782FE2FB78757401F27D4580327863
:1063B70030E2FB78757401F27D4D80257831E2FB80
:1063C70078757401F27D5580187832E2FB78757420
:1063D70001F27D5D800B7833E2FB78757401F27D05
:0763E700657F0212690E221E
:1063EE00127B2A7BFF7A2F7926E47874F2FD7F01E7
:1063FE00126BA27BFF7A2F793EE47874F27D0E7FCA
:10640E0001126BA27BFF7A2B799E7D1B7F01126E90
:10641E0008782CE2FBE47875F27D1D7F0212690E7E
:10642E00782DE2FBE47875F27D257F0212690E78F5
:10643E002EE2FBE47875F27D2D7F0212690E782F25
:10644E00E2FBE47875F27D357F0212690E7830E258
:10645E00FBE47875F27D3D7F0212690E7831E2FB26
:10646E00E47875F27D457F0212690E7832E2FBE424
:10647E007875F27D4D7F0212690E7833E2FBE47877
:10648E0075F27D557F0212690E7806E214B408008B
:10649E0040030265349064B175F003A4C58325F002
:1064AE00C583730264C90264D60264E30264F00217
:1064BE0064FD02650A026517026524782CE2FB78FA
:1064CE00757401F27D1D8059782DE2FB787574018B
:1064DE00F27D25804C782EE2FB78757401F27D2DCD
:1064EE00803F782FE2FB78757401F27D358032782B
:1064FE0030E2FB78757401F27D3D80257831E2FB48
:10650E0078757401F27D4580187832E2FB787574E7
:10651E0001F27D4D800B7833E2FB78757401F27DCC
:07652E00557F0212690E22E5
:106D4000127B2A7BFF7A2C79CEE47874F2FD7F01E6
:106D5000126BA27BFF7A2E7936E47874F27D0E7F77
:106D600001126BA27BFF7A2B799E7D1B7F01126E35
:106D7000087BFF7A2B799378737402F2E408F27D32
:106D80001D7F021259177BFE7A00792C78737405E7
:106D9000F2E408F27D2D7F021259177806E224FEF4
:106DA000601E14602C14603A146048240470587BF0
:106DB000FE7A00792C78737401F208F27D2D8042FE
:106DC0007BFE7A00792D78737401F208F27D3580AC
:106DD000317BFE7A00792E78737401F208F27D3DE2
:106DE00080207BFE7A00792F78737401F208F27D9F
:106DF00045800F7BFE7A00793078737401F208F2D7
:086E00007D4C7F02125917229C
:105A8A00127B2A7BFF7A2F7956E47874F2FD7F0124
:105A9A00126BA27BFF7A2E7936E47874F27D0E7F40
:105AAA0001126BA27BFF7A2B799E7D1B7F01126EFE
:105ABA0008782CE2FBE47875F27D257F0212690EE4
:105ACA00782DE2FBE47875F27D2D7F0212690E785B
:105ADA002EE2FBE47875F27D357F0212690E782F8B
:105AEA00E2FBE47875F27D3D7F0212690E7830E2BE
:105AFA00FBE47875F27D457F0212690E7831E2FB8C
:105B0A00E47875F27D4D7F0212690E7832E2FBE489
:105B1A007875F27D557F0212690E7833E2FBE478DC
:105B2A0075F27D5D7F0212690E7834E2FBE47875C6
:105B3A00F27D657F0212690E7806E214B40900400C
:105B4A0003025BEF905B5C75F003A4C58325F0C587
:105B5A008373025B77025B84025B91025B9E025B4A
:105B6A00AB025BB8025BC5025BD2025BDF782CE258
:105B7A00FB78757401F27D258066782DE2FB7875D5
:105B8A007401F27D2D8059782EE2FB78757401F24A
:105B9A007D35804C782FE2FB78757401F27D3D806B
:105BAA003F7830E2FB78757401F27D4580327831B6
:105BBA00E2FB78757401F27D4D80257832E2FB783C
:105BCA00757401F27D5580187833E2FB787574019B
:105BDA00F27D5D800B7834E2FB78757401F27D65A5
:065BEA007F0212690E2289
:10524200127B2A7BFF7A2B799E7D097F01126E08E1
:105252007BFF7A307946E47874F27D257F01126B08
:10526200A27BFF7A30795EE47874F27D317F01129D
:105272006BA27BFF7A307976E47874F27D3D7F0110
:10528200126BA27BFF7A2F796EE47874F27D4B7FEA
:1052920001126BA27BFF7A2F7986E47874F27D5734
:1052A2007F01126BA27BFF7A2B799E7D647F0112B4
:1052B2006E087806E224FE60521470030253411411
:1052C20070030253741470030253A7147003025341
:1052D200EB2405600302543878757401F2FB7D37C4
:1052E2007F0212690EE47875F27B01FD7F0112697B
:1052F2000E7BFF7A30798EE47874F27D0D7F011295
:105302006BA27BFF7A3079A60253D878757401F2CA
:105312007B027D377F0212690EE47875F27B02FD13
:105322007F0112690E7BFF7A317906E47874F27D8F
:105332000D7F01126BA27BFF7A31791E02541C7819
:10534200757401F27B037D377F0212690EE4787572
:10535200F27B03FD7F0112690E7BFF7A317936E41D
:105362007874F27D0D7F01126BA27BFF7A31794E48
:10537200806478757401F27B047D377F0212690EB6
:10538200E47875F27B04FD7F0112690E7BFF7A31AE
:105392007966E47874F27D0D7F01126BA27BFF7A4D
:1053A20031797E807578757401F27B057D377F02D5
:1053B20012690EE47875F27B05FD7F0112690E7B9E
:1053C200FF7A317996E47874F27D0D7F01126BA237
:1053D2007BFF7A3179AEE47874F27D197F01126B2A
:1053E200A27BFF7A32790E804278757401F27B06D5
:1053F2007D377F0212690EE47875F27B06FD7F012C
:1054020012690E7BFF7A3179C6E47874F27D0D7FE2
:1054120001126BA27BFF7A3179DEE47874F27D1996
:105422007F01126BA27BFF7A3179F6E47874F27D08
:07543200697F01126BA22249
:10710D0078043002097405F2087414F280077406CD
:10711D00F20874A4F2E4780DF208F2782AF208F27B
:10712D007840E2FFC4540F9002B0F0EF540FA3F07B
:10713D0008E2FFC4540FA3F0EF540FA3F008E2FFD1
:10714D00C4540FA3F0EF540FA3F07844E2FFC454DE
:10715D000FFEA3F0EF540FFFA3F008E2FDC4540F90
:10716D00FCA3F0ED540FFDA3F0A3EEF0A3EFF0A3FD
:06717D00ECF0A3EDF0228E
:0E561A00782CE224D09002D0F078027433F2A3
:105628009002B6E09002BAF09002B7E09002BBF0A8
:105638009002B8E09002BCF09002B9E09002BDF090
:105648009002A2E0FF7E007C037DE8125F2AAC0690
:10565800AD07A3E075F064A42DFDEC35F0FCA3E0E4
:1056680075F00AA42DFFE5F03CFEA3E07C002FFFB7
:10567800EC3EAB07FAEBAE027802C333CE33CED89A
:10568800F9FF7C007D03125F3CAA06AB079002A8D5
:10569800E075F00AA4FFA3E07C002FFFEC35F0FED4
:1056A8007D3C125F2AAC06AD07A3E075F00AA42D75
:1056B800FFEC35F0FEA3E07C002FFFEC3EFEEF2B65
:1056C800FBEE3AFA7D3CAF03FE125F3C786EEFF2D8
:1056D8007C007D3CAF03AE02125F3C9002BCE075DB
:1056E800F00AA4FFA3E07C002FFFEC35F0FEEF2DBD
:1056F800FBEC3EFAD3EB943BEA94004014786EE25C
:1057080004F274C42BFB74FF3AFA7D0AAF03FE80DF
:10571800087C007D0AAF03AE02125F3C9002BCEF2A
:10572800F07C007D0AAF03AE02125F3CA3EDF0905F
:1057380002BAE075F00AA4FFA3E07C002FFFEC3565
:10574800F0FE786EE22FFBEC3EFAD3EB9417EA9466
:105758000040277D18AF03AE02125F3CAA04AB05D8
:105768007C007D0AAF03AE02125F3C9002BAEFF0F4
:105778007C007D0AAF03AE0280187C007D0AAF036F
:10578800AE02125F3C9002BAEFF0AE02AF037C00AB
:085798007D0A125F3CA3EDF055
:0157A00022E6
:037929007802F2EF
:10792C00E4786EF2B2B31276147487C39F5006EFEC
:10793C00C39491400DEFD394F050077F0A127AC094
:02794C0080E2D7
:01794E002216
:107A8900B2B3127614EFD394F04001227F0A127A2E
:037A9900C080EDBD
:10000600E47869F2D2051278DD127B141276D012EA
:1000160072B8E47802F29002CEF0127B2A7BFF7A65
:100026002D798EE47874F27D307F01126BA27BFF0E
:100036007A2D79A6E47874F27D3D7F01126BA2E4F5
:100046007875F27B027D087F0212690EE47875F2FC
:10005600FB7D107F0212690E7840E2C4540FFBE468
:100066007875F27D187F0212690E7840E2540FFB14
:10007600E47875F27D207F0212690E7BFF7A2C7977
:1000860086E47874F27D2A7F02126BA27841E2C47C
:10009600540FFBE47875F27D387F0212690E7841C1
:1000A600E2540FFBE47875F27D407F0212690E7B05
:1000B600FF7A2C799EE47874F27D4A7F02126BA255
:1000C6007842E2C4540FFBE47875F27D587F021241
:1000D600690E7842E2540FFBE47875F27D607F0288
:1000E60012690EE47872F2FB7D6A7F021268257F40
:1000F6001E021B137802E2125FC7013A0006E705EB
:1001060015B41516E01617F017192C181A5C1909EC
:100116009B290313330CC0371E78541FC65511583C
:100126005A12025B140B5C1BD25E1E0F600152FF5B
:10013600000000FA780274FFF2D2057BFE7A00799D
:100146003F127183127B2A1257A180A830010EC27A
:10015600017BFE7A00793F1271831257A13005099F
:1001660030B004D2938002C293127B1EEF14700348
:100176000202A51470030202BF24FA70030202FBF6
:1001860024F87003020310240C60030200FAC293E1
:10019600C205127B2A7BFF7A2D798EE47874F27D74
:1001A600307F01126BA27BFF7A2D79A6E47874F278
:1001B6007D3D7F01126BA2127B1E7869EFF264050A
:1001C6006003020293127B2A78067402F27840E2F8
:1001D600FFC4540FFE9002EFF0EF540FFDA3F0089A
:1001E600E2FFC4540FFCA3F0EF540FFBA3F008E2A8
:1001F600F9C4540FFFA3F0E9540FF9A3F07844E2D1
:10020600C4540FA3F0E2540FA3F008E2FAC4540F4B
:10021600A3F0E2540FA3F09002FBEEF0A3EDF0A3DF
:10022600ECF0A3EBF0A3EFF0A3E9F09002F5E09079
:100236000301F09002F6E0900302F09002F7E090DE
:100246000303F09002F8E0900304F09002E57402D4
:10025600F0A304F0A37406F0A304F09002DD740189
:10026600F0A37403F0A314F0A37405F0A3F09002B6
:10027600DA7409F0A37407F01245867F147E001223
:100286007A21127A8978027454F20200FA7869E2C5
:1002960060030201BD127B2A7829745AF28007C2D4
:1002A60093C205127B2A12710D78067405F2FF12AD
:1002B6004E3F7802740502048CC293C205127B2A53
:1002C600E49002A8F0A3F0A3F0A304F0A304F0A323
:1002D6007404F0E49002BEF0A3F0A3F0A37405F05A
:1002E600A3F012710D78067403F278027429F212E3
:1002F60069EC020CBAC293C205127B2AE47806F2B4
:100306001250417802745A02048C021E41127B1E5E
:10031600EF1470030206D414602C24FA700302044E
:10032600F624F870030206BF240C60030200FA7874
:100336000274FFF2127B2A7BFE7A00793F127183E8
:100346001257A10211D47806E224FE70030204902B
:100356001470030204A61470030204CE1470030280
:1003660004BA1470030204E2240560030200FA12C0
:100376007B2A7BFF7A2D7946E47874F27D327F0101
:10038600126BA27BFF7A2D795EE47874F27D427F50
:1003960001126BA2786C7402F208E4F27B017A0215
:1003A600798378737408F27F007E021272597F0295
:1003B6007E00127A21786CE2FE08E22408FFE43E11
:1003C600FE7B017A02798B78737408F21272597F78
:1003D600027E00127A21786CE2FE08E22410FFE425
:1003E6003EFE7B017A02799378737405F212725994
:1003F6007F027E00127A217B017A027993787374E8
:1004060005F2E408F2FD7F02125917786CE2FE0845
:10041600E22415FFE43EFE7B017A02799978737433
:1004260009F2127259786CE2FE08E2241FFFE43EDC
:10043600FE7BFE7A00792C78737401F21272597879
:100446002CE224D09002D0F0786CE2FE08E2241967
:10045600FFE43EFE7BFE7A00792C78737402F2127A
:100466007259782CE29002CFF0A3E0FF1232FE7FA1
:10047600C37E00127A211278DD1276D07F017E00CB
:10048600127A21E47802F20211D49002D0E0B4018B
:10049600067402F0020ACF9002D0E014F0020ACFEE
:1004A6009002BAE070057402F080069002BAE01479
:1004B600F0020ACF9002BCE070057405F080069049
:1004C60002BCE014F0020ACF9002BBE0700574098A
:1004D600F080069002BBE014F0020ACF9002BDE065
:1004E60070057409F080069002BDE014F0020ACF90
:1004F6007806E224FE7003020655147003020667AE
:1005060014700302069314700302067D147003022E
:1005160006A9240560030200FA7BFF7A2D7976E4AA
:100526007874F27D2F7F02126BA27BFF7A2D798E73
:10053600E47874F27D3E7F02126BA27828E204F220
:10054600783DE2FF7828E2FEC39F4009783EE2FD4F
:10055600EED39D40047828EFF27BFE7A0079287866
:10056600737401F2E4FFFE1266347F017E00127A94
:1005760021127B2A7BFF7A2D7946E47874F27D324C
:100586007F01126BA27BFF7A2D795EE47874F27D8F
:10059600427F01126BA27828E275F020A42400FFA6
:1005A600E5F03402FE786CF208EFF27B017A02790C
:1005B6008378737408F21272597F027E00127A21D0
:1005C600786CE2FE08E22408FFE43EFE7B017A0234
:1005D600798B78737408F21272597F027E00127A50
:1005E60021786CE2FE08E22410FFE43EFE7B017AED
:1005F60002799378737405F21272597F027E0012A3
:100606007A21786CE2FE08E22415FFE43EFE7B01C7
:100616007A02799978737409F21272597B017A0217
:10062600799378737405F2E408F2FD7F0212591784
:100636009002D0E0FF1232FE7FF97E00127A21127C
:1006460078DD1276D07F017E00127A2102149F9007
:1006560002D0E004F0E0D3940240037401F0020AF1
:10066600CF9002BAE0C394024004E4F08006900200
:10067600BAE004F0020ACF9002BCE0C3940540043D
:10068600E4F080069002BCE004F0020ACF9002BBC0
:10069600E0C394094004E4F080069002BBE004F055
:1006A600020ACF9002BDE0C394094004E4F080063C
:1006B6009002BDE004F0020ACF7806E2C394064039
:1006C600057401F280057806E204F2020ACF780684
:1006D600E2B401057406F280057806E214F2020A15
:1006E600CF127B1EEF147003020971147003020807
:1006F6005C24FA700302079224F87003020982242C
:100706000C60030200FA127B2A1279AE7829E2B451
:100716005A2F78027437F278067402F2780DE4F2F2
:100726000874FFF2E49002A8F0A3F0A3F0A304F08B
:10073600A304F0A37404F0D207123961125BF080AF
:100746004578027429F278067402F2E49002BFF04A
:10075600A3F0A37405F0A3F0E4A3F0780D3002072C
:10076600F20874C1F28006E4F20874DBF2E4900247
:10077600A8F0A3F0A3F0A304F0A304F0A37404F07C
:100786001269EC126158E478290214A27806E2FF95
:1007960024FE602D24FE605024FE606924FE700352
:1007A600020828240824F6500302085974B02FF5CD
:1007B60082E43402F583E0C394097806E24044807B
:1007C600237806E2FF24B0F582E43402F583E07074
:1007D6001074B02FF582E43402F5837401F0020937
:1007E600917806E224B080507806E2FF24B0F582C4
:1007F600E43402F583E0C39403400574B02F8038D7
:100806007806E280427806E2FF24B0F582E43402FC
:10081600F583E0C39402400574B02F801B7806E28E
:1008260080257806E2FF24B0F582E43402F583E001
:10083600C39405400F74B02FF582E43402F583E4C7
:10084600F00209917806E224B0F582E43402F583D9
:10085600E004F00209917806E2FF24FE604A24FED5
:10086600607624FE700302090E24FE700302093E20
:10087600240824F6500302096F74B02FF582E4347D
:1008860002F583E078067010E224B0F582E43402C3
:10089600F5837409F002096CE224B0F582E43402AF
:1008A600F583E014F002096C7806E2FF24B0F582C5
:1008B600E43402F583E0700F74B02FF582E434025D
:1008C600F5837401F0800E7806E224B0F582E434F4
:1008D60002F583E4F002096C7806E2FF24B0F582A3
:1008E600E43402F583E0700F74B02FF582E434022D
:1008F600F5837403F0800F7806E224B0F582E434C1
:1009060002F583E014F0805E7806E2FF24B0F582FB
:10091600E43402F583E0700F74B02FF582E43402FC
:10092600F5837402F0800F7806E224B0F582E43491
:1009360002F583E014F0802E7806E2FF24B0F582FB
:10094600E43402F583E0700F74B02FF582E43402CC
:10095600F5837405F0800F7806E224B0F582E4345E
:1009660002F583E014F0127A8980207806E2700599
:100976007409F280057806E214F2800F7806E2B474
:100986000904E4F280057806E204F27806E2FF1232
:100996004E3F0211D4127B1EEF147003020C9A1400
:1009A6007003020BB824FA7003020AD524F8700308
:1009B600020CAB240C60030200FA3004030200FAB6
:1009C600780BE2FA08E2FB7C007D0AFFAE02125FBA
:1009D6003C9002BFEFF07C007D0AAF03AE02125FCF
:1009E6003CA3EDF07804E2FE08E2FF7C007D0A12EB
:1009F6005F3C7804EEF208EFF218E2FE08E2FF7CB4
:100A0600007D64125F3CA3EFF07C007D64125F2AD8
:100A16007804E2FA08E2FBC39FFFEA9EFE7D0A1213
:100A26005F3CA3EFF07C007D0AAF03AE02125F3C91
:100A3600A3EDF0127B2A78067401F27828E2FF789B
:100A46006CE4F208EFF2E22401F218E23400F278E4
:100A56003DE2FF7E00786CE2FC08E2FDC39FEC9E5F
:100A6600400C783EE2FBD3ED9BEC94004007786C9B
:100A7600EEF208EFF2786CE2FE08E27805C333CEB8
:100A860033CED8F92400FFEE3402FE786CF208EF7C
:100A9600F22419FFE43EFE7BFE7A00792C7873740B
:100AA60002F2127259782CE29002CFF0786CE2FED4
:100AB60008E2241FFFE43EFE7BFE7A00792C787361
:100AC6007401F212725912561A1260050211D4C23A
:100AD600037806E2FFB40B004003020BAA900AEA71
:100AE600F8282873020B0B020B0B020B0B020B0BE5
:100AF600020B39020B48020B48020B7A020B480222
:100B06000B7A020B4874BF2FF582E43402F583E0BA
:100B16007806B4090FE224BFF582E43402F583E4D3
:100B2600F0020BAAE224BFF582E43402F583E00466
:100B3600F080717847E2700404F28068E47847F246
:100B460080627806E2FF24A3F582E43402F583E0AE
:100B5600B4090E74A32FF582E43402F583E4F08021
:100B66000F7806E224A3F582E43402F583E004F06C
:100B7600D20380307806E2FF24A3F582E43402F53E
:100B860083E0B4050E74A32FF582E43402F583E402
:100B9600F0800F7806E224A3F582E43402F583E0C0
:100BA60004F0D203300305123F8A80031269EC0277
:100BB6000CBAC2037806E2FFB40B004003020C8DA8
:100BC600900BCDF8282873020BEE020BEE020BEE0B
:100BD600020BEE020C1C020C2B020C2B020C5D020B
:100BE6000C2B020C5D020C2B74BF2FF582E4340231
:100BF600F583E078067010E224BFF582E43402F54E
:100C0600837409F0020C8DE224BFF582E43402F508
:100C160083E014F080717847E2700404F28068E49F
:100C26007847F280627806E2FF24A3F582E4340274
:100C3600F583E0700F74A32FF582E43402F5837414
:100C460009F0800F7806E224A3F582E43402F583E6
:100C5600E014F0D20380307806E2FF24A3F582E4A4
:100C66003402F583E0700F74A32FF582E43402F5A5
:100C7600837405F0800F7806E224A3F582E434023B
:100C8600F583E014F0D203300305123F8A80031285
:100C960069EC80207806E27005740AF28005780611
:100CA600E214F2800F7806E2B40A04E4F2800578D2
:100CB60006E204F21261580211D4127B1EEF147080
:100CC60003021132147003020FA924FA7003020DF5
:100CD6008A24F87003021143240C60030200FA30E0
:100CE60004030200FA127B2A78067401F27828E2DD
:100CF600FF786CE4F208EFF2E22401F218E2340025
:100D0600F2783DE2FF7E00786CE2FC08E2FDC39FCC
:100D1600EC9E400C783EE2FBD3ED9BEC9400400742
:100D2600786CEEF208EFF2786CE2FE08E27805C322
:100D360033CE33CED8F92400FFEE3402FE786CF2BF
:100D460008EFF22419FFE43EFE7BFE7A00792C7848
:100D5600737402F2127259782CE29002CFF0786C1A
:100D6600E2FE08E2241FFFE43EFE7BFE7A00792CB9
:100D760078737401F212725912561A126005127BB8
:100D8600260211D4C2037806E2B40C004003021115
:100D960029900D9EF8282873020F08020EA8020E4D
:100DA6005C020E0F020DC2020F2E020F3F020F3F12
:100DB600020F74020F3F020F74020F3F780DE2FA22
:100DC60008E2FB7C007D0AFFAE02125F3C786AEC0B
:100DD600F208EDF2E22401F218E23400F2E2FE0833
:100DE600E2FF7C007D0A125F3C786AECF208EDF2C5
:100DF6007C007D0AAF03AE02125F3C780DEEF2086E
:100E0600EFF27C007D0A020EF2780DE2FA08E2FBB0
:100E16007C007D64FFAE02125F3C786AECF208ED5E
:100E2600F2E2240AF218E23400F2E2FE08E2FF7C63
:100E3600007D64125F3C786AECF208EDF27C007D7E
:100E460064AF03AE02125F3C780DEEF208EFF27C5F
:100E5600007D64020EF2780DE2FA08E2FB7C037D67
:100E6600E8FFAE02125F3C786AECF208EDF2E2248B
:100E760064F218E23400F2E2FE08E2FF7C037DE849
:100E8600125F3C786AECF208EDF27C037DE8AF0372
:100E9600AE02125F3C780DEEF208EFF27C037DE8BD
:100EA600804A780DE2FA08E2FB7C277D10FFAE024D
:100EB600125F3C786AECF208EDF2E224E8F218E2FE
:100EC6003403F2E2FE08E2FF7C277D10125F3C78D5
:100ED6006AECF208EDF27C277D10AF03AE02125FDA
:100EE6003C780DEEF208EFF27C277D10125F2A782F
:100EF6006AE2FC08E22FFFEC3E780DF208EFF20200
:100F06001129780EE22410F218E23427F2E2FE08E4
:100F1600E2D3942FEE94755003021129E224D0F205
:100F260018E2348AF20211297847E2700504F202C7
:100F36001129E47847F20211297806E2FF24A2F586
:100F460082E43402F583E0C39409500F74A22FF5AE
:100F560082E43402F583E004F0800E7806E224A2EF
:100F6600F582E43402F583E4F0D20302112978060F
:100F7600E2FF24A2F582E43402F583E0C39405502F
:100F86000F74A22FF582E43402F583E004F0800E9C
:100F96007806E224A2F582E43402F583E4F0D20373
:100FA600021129C2037806E2FBB40C0040030211C9
:100FB60029900FBEF828287302108D02105D0210CA
:100FC6002D021004020FE20210BB0210CA0210CA60
:100FD6000210F90210CA0210F90210CA780DE2FED8
:100FE60008E2FF7C007D0A125F3CC3ED9401EC949D
:100FF60000780EE2400424FF804924098020780D01
:10100600E2FE08E2FF7C007D64125F3CC3ED940AB9
:10101600EC9400780EE2400424F68027245AF21855
:10102600E23400F2021129780DE2FE08E2FF7C03A9
:101036007DE8125F3CC3ED9464EC9400780EE240C8
:101046000B249CF218E234FFF20211292484F218D0
:10105600E23403F2021129780DE2FE08E2FF7C2752
:101066007D10125F3CC3ED94E8EC9403780EE240E9
:101076000B2418F218E234FCF20211292428F21883
:10108600E23423F2021129780DE2FE08E2FF7C2702
:101096007D10125F3CC3EF9401EE9400780EE2409F
:1010A6000A24F0F218E234D8F280782420F218E20A
:1010B600344EF2806E7847E2700404F28065E4787C
:1010C60047F2805F74A22BF582E43402F583E07860
:1010D60006700FE224A2F582E43402F5837409F067
:1010E600800DE224A2F582E43402F583E014F0D206
:1010F6000380307806E2FF24A2F582E43402F58309
:10110600E0700F74A22FF582E43402F5837405F0C3
:10111600800F7806E224A2F582E43402F583E01417
:10112600F0D203A203920712396180207806E2709A
:1011360005740BF280057806E214F2800F7806E259
:10114600B40B04E4F280057806E204F2125BF002C6
:101156002308127B1EEF1470030211EA1460122496
:10116600FA600E24F8606A240C60030200FA021E7C
:10117600417806E214601F1460291460412403704C
:101186004D127B2A78067401F212710D125D5078A9
:1011960002745BF28038127B2A12672F7802745C25
:1011A600F2802B127B2A7BFE7A00793F12718378BC
:1011B600067407F21254397802745EF28010127BBC
:1011C6002A78067401F212731478027460F202230C
:1011D600087806E204F2E2D394034002E4F21250E5
:1011E600410223087806E2C3940150057403F28095
:1011F600057806E214F2125041022308127B1EEF14
:101206001470030213F714700302131E24FA603AD3
:1012160024F870030213DF240C60030200FA127B29
:101226002A7BFE7A00793D78737401F2FF7E001204
:1012360066347BFE7A00793E78737401F27F027E13
:1012460000126634127855021E417806E224FE60CA
:101256003014604814605F1460781470030212F949
:1012660024056003021318783DE275F00A84AFF096
:101276007869EFF2783DE2BF0902804D04F202136D
:1012860018783DE275F06484E5F075F00A84FF781D
:1012960069F2783DE2BF0902804F8052783DE2FF55
:1012A60075F064847869F27004783D8055EF75F0C6
:1012B6006484783D8059783EE275F00A84AFF07810
:1012C60069EFF2783EE2BF090524F7F2804404F2A2
:1012D6008040783EE275F06484E5F075F00A84FF9C
:1012E6007869F2783EE2BF090524A6F28024240A32
:1012F600F2801F783EE2FF75F064847869F2700828
:10130600783EE22464F2800AEF75F06484783EE564
:10131600F0F2125D500223087806E224FE602914DA
:10132600603C14605314606C1470030213BA2405F5
:1013360060030213D9783DE275F00A84AFF078694C
:10134600EFF2783D70498041783DE275F06484E5BE
:10135600F075F00A847869F2783D7052804A783DDB
:10136600E2FF75F064847869F27004783D8054EF8A
:1013760075F06484783D8058783EE275F00A84AF53
:10138600F07869EFF2783E7006E22409F28044E2D2
:1013960014F2803F783EE275F06484E5F075F00A59
:1013A600847869F2783E7006E2245AF28025E224B7
:1013B600F6F2801F783EE2FF75F064847869F27079
:1013C60008783EE22464F2800AEF75F06484783E81
:1013D600E5F0F2125D500223087806E2C39402504B
:1013E600057406F280057806E214F2125D500223B7
:1013F600087806E204F2E2D3940640037401F2127E
:101406005D50022308127B1EEF147003021585142B
:10141600700302151624FC606424FE70030214A6F1
:1014260024F8700302159C24FE6052240E60030209
:1014360000FA78067401F27828E275F020A42400F8
:10144600FFE5F03402FE7BFE7A00792C787374088F
:10145600F2127259E47869F27869E2FFC39408508F
:101466000F742C2FF8E224D0F27869E204F280E8B7
:101476001262A774151279297F05021B13127B2AA3
:101486007BFE7A00792878737401F2E4FFFE126617
:101496003412785578067401F2E47802F2022308D1
:1014A6007806E224FE60231460412402705C7828EA
:1014B600E275F00A84AFF07869EFF27828E2BF09A6
:1014C6000524F7F2804404F280407828E275F0643F
:1014D60084E5F075F00A84FF7869F27828E2BF099E
:1014E6000524A6F28024240AF2801F7828E2FF75DC
:1014F600F064847869F270087828E22464F2800A3D
:10150600EF75F064847828E5F0F212673402230858
:101516007806E224FE60231460402402705B78287B
:10152600E275F00A84AFF07869EFF278287006E287
:101536002409F28044E214F2803F7828E275F064D0
:1015460084E5F075F00A847869F278287006E2245A
:101556005AF28025E224F6F2801F7828E2FF75F021
:1015660064847869F270087828E22464F2800AEFCD
:1015760075F064847828E5F0F2126734022308785F
:1015860006E204F2E2D3940340057401F2800100FE
:101596001267340223087806E2C3940250057403E6
:1015A600F280057806E214F2126734022308127BF1
:1015B6001EEF1470030216B214700302169524FC73
:1015C600700302167124FE700302167C24F8700361
:1015D6000216C824FE7003021671240E6003020070
:1015E600FA78067401F2E47869F27869E2FFC39446
:1015F60008500F742C2FF8E22430F27869E204F2D6
:1016060080E87828E275F020A42400FFE5F0340293
:10161600FE7BFE7A00792C78737408F21266341217
:101626007A1D7828E275F020A42408FFE5F034023C
:10163600FE7BFE7A00792C78737408F212725912C6
:101646007A1DE47869F27869E2FFC39408500F7452
:101656002C2FF8E224D0F27869E204F280E81263D3
:10166600EE74161279297F05021B1312672F780272
:10167600745CF20223087806E2242BF8E2C394098C
:101686004004E4F28003E204F21262A7022308781F
:1016960006E2242BF8E2FF6005D39409400574099D
:1016A600F28003E214F21262A70223087806E2B47B
:1016B60001057408F280057806E214F21262A702A8
:1016C60023087806E2C3940840057401F280057881
:1016D60006E204F21262A7022308127B1EEF1470C0
:1016E600030217C21470030217A524FC7003021725
:1016F6008124FE700302178C24F870030217D82485
:10170600FE6078240E60030200FA78067401F2E4A3
:101716007869F27869E2FFC39408500F742C2FF8A9
:10172600E22430F27869E204F280E87828E275F083
:1017360020A42408FFE5F03402FE7BFE7A00792C13
:1017460078737408F2126634127A1D7828E275F0FE
:1017560020A42410FFE5F03402FE7BFE7A00792CEB
:1017660078737405F2127259127A1D126D4078025E
:101776007417F212792C7F05021B1312672F780259
:10178600745CF20223087806E2242BF8E2C394097B
:101796004004E4F28003E204F21263EE02230878C6
:1017A60006E2242BF8E2FF6005D39409400574098C
:1017B600F28003E214F21263EE0223087806E2B422
:1017C60001057408F280057806E214F21263EE024F
:1017D60023087806E2C3940840057401F280057870
:1017E60006E204F21263EE022308127B1EEF147067
:1017F600030218FE1470030218CC24FC70030218AE
:101806009124FE700302189C24F870030219142414
:10181600FE6078240E60030200FA7828E275F02054
:10182600A42410FFE5F03402FE7BFE7A00792C78C2
:10183600737405F2126634127A1D7828E275F02068
:10184600A42415FFE5F03402FE7BFE7A00792C789D
:10185600737409F2127259127A1DE47869F2786982
:10186600E2FFC39409500F742C2FF8E224D0F278CB
:1018760069E204F280E878067401F2125A8A780264
:101886007418F212792C7F05021B1312672F780247
:10189600745CF20223087806E2242BF8E2FFC39474
:1018A60039400AEF944150057441F28013EFC39416
:1018B600304005EF945A40057430F28003E204F29A
:1018C600126D400223087806E2242BF8E2FFD39437
:1018D60039400BEFD3944150057439F28014EFD39D
:1018E60094304006EFD3945A4005745AF28003E2CE
:1018F60014F2126D400223087806E2B4010574055D
:10190600F280057806E214F2126D4002230878068A
:10191600E2C3940540057401F280057806E204F2FC
:10192600126D40022308127B1EEF147003021A2E5A
:10193600147003021A1124FC70030219ED24FE70C0
:10194600030219F824F87003021A4424FE700302F5
:1019560019ED240E60030200FAE47869F27869E270
:10196600FFC39409500F742C2FF8E22430F27869E3
:10197600E204F280E87828E275F020A42415FFE559
:10198600F03402FE7BFE7A00792C78737409F21229
:101996006634127A1D7828E275F020A4241FFFE52C
:1019A600F03402FE7BFE7A00792C78737401F21211
:1019B6007259127A1DE47869F27869E2FFC39401DC
:1019C600500F742C2FF8E224D0F27869E204F280EA
:1019D600E8782CE27806F212524278027419F21272
:1019E600792C7F05021B1312672F7802745CF202B2
:1019F60023087806E2242BF8E2C394094004E4F2B3
:101A06008003E204F2125A8A0223087806E2242BA3
:101A1600F8E2FF6005D3940940057409F28003E2F9
:101A260014F2125A8A0223087806E2B401057409F0
:101A3600F280057806E214F2125A8A022308780622
:101A4600E2C3940940057401F280057806E204F2C7
:101A5600125A8A022308127B1EEF24FE7003021B11
:101A6600BC24FC7003021B1B24FE7003021BA4246F
:101A7600F67003021B1B240E60030200FA7806E2CE
:101A8600782CF2E47869F27869E2FFC39401500F8A
:101A9600742C2FF8E22430F27869E204F280E878B8
:101AA60028E275F020A4241FFFE5F03402FE7BFE39
:101AB6007A00792C78737401F2126634127A1D78E2
:101AC60028E275F020A42400FFE5F03402FE7BFE38
:101AD6007A00792C78737408F2127259E47869F2F4
:101AE6007869E2FFC39408500F742C2FF8E224D0D3
:101AF600F27869E204F280E8127A1D78067401F23F
:101B06001250417802745AF212792C7F057E001227
:101B16007A210200FA7806E2782CF2E47869F27803
:101B260069E2FFC39401500F742C2FF8E22430F2BF
:101B36007869E204F280E87828E275F020A4241F90
:101B4600FFE5F03402FE7BFE7A00792C787374018F
:101B5600F2126634127A1D7828E275F020A4240069
:101B6600FFE5F03402FE7BFE7A00792C7873740868
:101B7600F2127259127A1DE47869F27869E2FFC3AB
:101B86009408500F742C2FF8E224D0F27869E204FE
:101B9600F280E812672F7802745CF2022308780656
:101BA600E2C3940240057401F280057806E204F26D
:101BB6001252420223087806E2B401057402F2804A
:101BC600057806E214F2125242022308127B1EEF37
:101BD600147003021DF7147003021CFB24FA602123
:101BE60024F87003021DDF240C60030200FA7BFE5A
:101BF6007A00793F1273C3127855E47802F2022311
:101C0600087806E214B40A004003021CF5901C2171
:101C160075F003A4C58325F0C58373021C3F021C1F
:101C2600A0021C52021CB0021C65021CC0021C78D9
:101C3600021CD0021C8A021CE07840E2D394904039
:101C460007E22470F2021CF5784080487841E2C32E
:101C560094104007E224F0F2021CF57841803578B2
:101C660042E2D394304007E224D0F2021CF57842D7
:101C760080227844E2D394204006E224E0F2806F8A
:101C8600784480107845E2D394504006E224B0F2BE
:101C9600805D7845E22410F280557840E2540FC307
:101CA60094094002803E784080427841E2540FC356
:101CB60094094002802E784180327842E2540FC364
:101CC60094094002801E784280227844E2540FC371
:101CD60094094002800E784480127845E2540FC37E
:101CE60094094006E224F7F280057845E204F212F0
:101CF60054390223087806E214B40A004003021D90
:101D0600D9901D1575F003A4C58325F0C58373020C
:101D16001D33021D93021D46021DA0021D59021D00
:101D2600AD021D6B021DBA021D7D021DC77840E281
:101D3600C394105007E22490F2021DD978408047E0
:101D46007841E2C394105007E22410F2021DD978BC
:101D56004180347842E2C394105006E22430F28087
:101D660072784280227844E2C394105006E224201E
:101D7600F28060784480107845E2C394105006E201
:101D86002450F2804E7845E224F0F280467840E214
:101D9600540F70028032784080367841E2540F70DA
:101DA600028025784180297842E2540F700280181B
:101DB6007842801C7844E2540F7002800B7844808D
:101DC6000F7845E2540F7006E22409F28005784543
:101DD600E214F21254390223087806E2C3940A4048
:101DE600057401F280057806E204F21254390223E2
:101DF600087806E2C394025005740AF28005780654
:101E0600E214F2125439022308127B1EEF24FE60FC
:101E16004A24FA602D240460030200FA127B2A90F9
:101E260002CDE0782CF27BFE7A00792C787374016F
:101E3600F27F037E00126634127855E47802F202CD
:101E460000FA9002CDE02401FFE433FE7C007D0A17
:101E5600125F3CEDF01273140223089002CDE0707D
:101E6600057409F080069002CDE014F01273140296
:101E76002308127B1EEF147003021FAE14700302B8
:101E86001F2424FA602124F87003021F96240C6094
:101E9600030200FA127B2A78027455F2780674015E
:101EA600F2124BF70223087806E2FFC39402402C95
:101EB600EFD3940B502674ED2FF582E43402F583AC
:101EC600E0D39408400AE224EDF582E4340280333C
:101ED6007806E224EDF582E4340280377806E2FFE4
:101EE600C3940C4033EFD39415502D74EF2FF58225
:101EF600E43402F583E0D39408400EE224EFF58241
:101F0600E43402F583E4F0800F7806E224EFF582EC
:101F1600E43402F583E004F01245860223087806CD
:101F2600E2FFC394024029EFD3940B502374ED2FA4
:101F3600F582E43402F583E0700AE224EDF582E4EA
:101F4600340280307806E224EDF582E434028035EE
:101F56007806E2FFC3940C4031EFD39415502B74EE
:101F6600EF2FF582E43402F583E0700FE224EFF5FB
:101F760082E43402F5837409F0800F7806E224EFD8
:101F8600F582E43402F583E014F012458602230854
:101F96007806E2C3941540057402F280057806E2DD
:101FA60004F21245860223087806E2C3940350051C
:101FB6007415F280057806E214F2124586022308AB
:101FC600127B1EEF14700302230E14700302217B92
:101FD60024FA602124F870030222F3240C60030221
:101FE60000FA7BFE7A00793F1271831257A1E478DA
:101FF60002F20223087806E2FF14B40C0040030242
:10200600217590201675F003A4C58325F0C583734A
:1020160002203A02203A02203A02203A02205F02C7
:10202600205F02205F02205F02205F0220880220DC
:10203600880220BC74E42FF582E43402F583E0D3F1
:1020460094097806E2400924E4F582E43402804DDE
:1020560024E4F582E4340280557806E2FF24D8F5BC
:1020660082E43402F583E0D39409400A74D82FF54C
:1020760082E4340280277806E224D8F582E434022A
:10208600802C7806E2FF24D0F582E43402F583E062
:10209600D39409400F74D02FF582E43402F583E41B
:1020A600F00221757806E224D0F582E43402F58345
:1020B600E004F0022175127B2A7BFF7A2D7946E433
:1020C6007874F27D327F01126BA27BFF7A2D795EE6
:1020D600E47874F27D427F01126BA2786C7402F28E
:1020E60008E4F27B017A02798378737408F27F0040
:1020F6007E02127259786CE2FE08E22408FFE43E82
:10210600FE7B017A02798B78737408F21272597821
:102116006CE2FE08E22410FFE43EFE7B017A0279BF
:102126009378737405F2127259786CE2FE08E22411
:1021360015FFE43EFE7B017A02799978737409F201
:102146001272597BFE7A00792C78737401F27F1F24
:102156007E02127259782CE224D0FF120000127807
:10216600DD1276D07F017E00127A21E47802F21227
:102176004BF70223087806E2FF14B40C0040030272
:1021860022EE90219675F003A4C58325F0C58373CE
:102196000221BA0221BA0221BA0221BA0221DD02C3
:1021A60021DD0221DD0221DD0221DD0222030222E0
:1021B6000302223574E42FF582E43402F583E078D5
:1021C60006700AE224E4F582E434028048E224E45C
:1021D600F582E4340280507806E2FF24D8F582E4E2
:1021E6003402F583E0700A74D82FF582E434028055
:1021F600247806E224D8F582E43402802A7806E2BE
:10220600FF24D0F582E43402F583E0701074D02FF9
:10221600F582E43402F5837409F00222EE7806E2D0
:1022260024D0F582E43402F583E014F00222EE12A3
:102236007B2A7BFF7A2D7946E47874F27D327F0122
:10224600126BA27BFF7A2D795EE47874F27D427F71
:1022560001126BA2786C7402F208E4F27B017A0236
:10226600798378737408F27F007E02127259786C53
:10227600E2FE08E22408FFE43EFE7B017A02798B47
:1022860078737408F2127259786CE2FE08E2241030
:10229600FFE43EFE7B017A02799378737405F212AD
:1022A6007259786CE2FE08E22415FFE43EFE7B01DB
:1022B6007A02799978737409F21272597BFE7A0060
:1022C600792C78737401F27F1F7E02127259782C72
:1022D600E224D0FF1200001278DD1276D07F017E54
:1022E60000127A21E47802F2124BF780157806E2A2
:1022F600C3940C40057401F280057806E204F212DC
:102306004BF7127A890200FA7806E2C39402500566
:10231600740CF280057806E214F2124BF7127A89F1
:032326000200FAB8
:10754200C2A1D2A200000000000000000000000062
:10755200000000D2A10000000000000000000000B6
:1075620000000000C2A200000000000000000000B5
:107572000000000000C2A1000000000000000000A6
:0775820000000000000022E0
:10758900C2A1C2A20000000000000000000000002B
:10759900000000D2A100000000000000000000006F
:1075A90000000000D2A2000000000000000000005E
:1075B9000000000000C2A10000000000000000005F
:0775C9000000000000002299
:1078B400C2A1A20892A20000000000000000000083
:1078C4000000000000D2A100000000000000000041
:0978D400000000000000C2A12226
:10765500D2A2C2A10000000000000000000000004E
:10766500000000A2A2920700000000000000000038
:10767500000000000000D2A1000000000000000092
:0F76850000000000000000C2A1300702C322D3A2
:0176940022D3
:1074F900E4F508C2A100000000000000000000003F
:1075090000000000EF3392A2EF25E0FF0000000029
:107519000000000000000000000000D2A1000000EF
:107529000000000000000000000000000508E50858
:08753900B408C0C2A11276558E
:017541002227
:10736C00E4F509D2A2F508E50925E0F509C2A1006A
:10737C00000000000000000000000000000030A22F
:10738C0003430901000000000000000000000000A1
:10739C00000000D2A100000000000000000000006E
:1073AC00000000000508E508B408BCC2A1A20792C1
:0673BC00081278B4AF09CD
:0173C20022A8
:0277ED00AE03E9
:1077EF00127542EF54FEFF1274F9AF051274F9E4EB
:1077FF00FDEDC39E50197871E2FB08E2FA08E2F939
:10780F008D82758300125EC9FF1274F90D80E2023A
:02781F00758969
:0471F900AE07AC032E
:1071FD00127542EE54FEFF1274F9AF051274F912B6
:10720D007542EE4401FF1274F9E4FEEC14FFEEC377
:10721D009F501BC20712736C7874E2FB08E2FA08E8
:10722D00E2F98E82758300EF125F080E80DDD207C2
